{
  "contractName": "ServiceToken",
  "abi": [
    {
      "inputs": [],
      "stateMutability": "nonpayable",
      "type": "constructor"
    },
    {
      "anonymous": false,
      "inputs": [
        {
          "indexed": true,
          "internalType": "address",
          "name": "owner",
          "type": "address"
        },
        {
          "indexed": true,
          "internalType": "address",
          "name": "spender",
          "type": "address"
        },
        {
          "indexed": false,
          "internalType": "uint256",
          "name": "value",
          "type": "uint256"
        }
      ],
      "name": "Approval",
      "type": "event"
    },
    {
      "anonymous": false,
      "inputs": [
        {
          "indexed": true,
          "internalType": "uint256",
          "name": "escrowId",
          "type": "uint256"
        }
      ],
      "name": "EscrowCompleted",
      "type": "event"
    },
    {
      "anonymous": false,
      "inputs": [
        {
          "indexed": true,
          "internalType": "uint256",
          "name": "escrowId",
          "type": "uint256"
        },
        {
          "indexed": true,
          "internalType": "address",
          "name": "client",
          "type": "address"
        },
        {
          "indexed": true,
          "internalType": "address",
          "name": "provider",
          "type": "address"
        },
        {
          "indexed": false,
          "internalType": "uint256",
          "name": "amount",
          "type": "uint256"
        }
      ],
      "name": "EscrowCreated",
      "type": "event"
    },
    {
      "anonymous": false,
      "inputs": [
        {
          "indexed": true,
          "internalType": "uint256",
          "name": "escrowId",
          "type": "uint256"
        }
      ],
      "name": "EscrowRefunded",
      "type": "event"
    },
    {
      "anonymous": false,
      "inputs": [
        {
          "indexed": true,
          "internalType": "address",
          "name": "previousOwner",
          "type": "address"
        },
        {
          "indexed": true,
          "internalType": "address",
          "name": "newOwner",
          "type": "address"
        }
      ],
      "name": "OwnershipTransferred",
      "type": "event"
    },
    {
      "anonymous": false,
      "inputs": [
        {
          "indexed": false,
          "internalType": "uint256",
          "name": "feePercentage",
          "type": "uint256"
        },
        {
          "indexed": false,
          "internalType": "uint256",
          "name": "burnPercentage",
          "type": "uint256"
        },
        {
          "indexed": false,
          "internalType": "address",
          "name": "owner",
          "type": "address"
        }
      ],
      "name": "ParametersUpdated",
      "type": "event"
    },
    {
      "anonymous": false,
      "inputs": [
        {
          "indexed": true,
          "internalType": "address",
          "name": "client",
          "type": "address"
        },
        {
          "indexed": true,
          "internalType": "address",
          "name": "provider",
          "type": "address"
        },
        {
          "indexed": false,
          "internalType": "uint256",
          "name": "amount",
          "type": "uint256"
        }
      ],
      "name": "ServicePayment",
      "type": "event"
    },
    {
      "anonymous": false,
      "inputs": [
        {
          "indexed": true,
          "internalType": "address",
          "name": "staker",
          "type": "address"
        },
        {
          "indexed": false,
          "internalType": "uint256",
          "name": "amount",
          "type": "uint256"
        }
      ],
      "name": "Staked",
      "type": "event"
    },
    {
      "anonymous": false,
      "inputs": [
        {
          "indexed": true,
          "internalType": "address",
          "name": "from",
          "type": "address"
        },
        {
          "indexed": true,
          "internalType": "address",
          "name": "to",
          "type": "address"
        },
        {
          "indexed": false,
          "internalType": "uint256",
          "name": "value",
          "type": "uint256"
        }
      ],
      "name": "Transfer",
      "type": "event"
    },
    {
      "anonymous": false,
      "inputs": [
        {
          "indexed": true,
          "internalType": "address",
          "name": "staker",
          "type": "address"
        },
        {
          "indexed": false,
          "internalType": "uint256",
          "name": "amount",
          "type": "uint256"
        },
        {
          "indexed": false,
          "internalType": "uint256",
          "name": "rewards",
          "type": "uint256"
        }
      ],
      "name": "Unstaked",
      "type": "event"
    },
    {
      "inputs": [
        {
          "internalType": "address",
          "name": "owner",
          "type": "address"
        },
        {
          "internalType": "address",
          "name": "spender",
          "type": "address"
        }
      ],
      "name": "allowance",
      "outputs": [
        {
          "internalType": "uint256",
          "name": "",
          "type": "uint256"
        }
      ],
      "stateMutability": "view",
      "type": "function"
    },
    {
      "inputs": [
        {
          "internalType": "address",
          "name": "spender",
          "type": "address"
        },
        {
          "internalType": "uint256",
          "name": "amount",
          "type": "uint256"
        }
      ],
      "name": "approve",
      "outputs": [
        {
          "internalType": "bool",
          "name": "",
          "type": "bool"
        }
      ],
      "stateMutability": "nonpayable",
      "type": "function"
    },
    {
      "inputs": [
        {
          "internalType": "address",
          "name": "account",
          "type": "address"
        }
      ],
      "name": "balanceOf",
      "outputs": [
        {
          "internalType": "uint256",
          "name": "",
          "type": "uint256"
        }
      ],
      "stateMutability": "view",
      "type": "function"
    },
    {
      "inputs": [],
      "name": "burnPercentage",
      "outputs": [
        {
          "internalType": "uint256",
          "name": "",
          "type": "uint256"
        }
      ],
      "stateMutability": "view",
      "type": "function"
    },
    {
      "inputs": [],
      "name": "decimals",
      "outputs": [
        {
          "internalType": "uint8",
          "name": "",
          "type": "uint8"
        }
      ],
      "stateMutability": "view",
      "type": "function"
    },
    {
      "inputs": [
        {
          "internalType": "address",
          "name": "spender",
          "type": "address"
        },
        {
          "internalType": "uint256",
          "name": "subtractedValue",
          "type": "uint256"
        }
      ],
      "name": "decreaseAllowance",
      "outputs": [
        {
          "internalType": "bool",
          "name": "",
          "type": "bool"
        }
      ],
      "stateMutability": "nonpayable",
      "type": "function"
    },
    {
      "inputs": [],
      "name": "escrowCounter",
      "outputs": [
        {
          "internalType": "uint256",
          "name": "",
          "type": "uint256"
        }
      ],
      "stateMutability": "view",
      "type": "function"
    },
    {
      "inputs": [
        {
          "internalType": "uint256",
          "name": "",
          "type": "uint256"
        }
      ],
      "name": "escrows",
      "outputs": [
        {
          "internalType": "address",
          "name": "client",
          "type": "address"
        },
        {
          "internalType": "address",
          "name": "provider",
          "type": "address"
        },
        {
          "internalType": "uint256",
          "name": "amount",
          "type": "uint256"
        },
        {
          "internalType": "bool",
          "name": "completed",
          "type": "bool"
        },
        {
          "internalType": "bool",
          "name": "refunded",
          "type": "bool"
        },
        {
          "internalType": "bool",
          "name": "clientAgreed",
          "type": "bool"
        },
        {
          "internalType": "bool",
          "name": "providerAgreed",
          "type": "bool"
        }
      ],
      "stateMutability": "view",
      "type": "function"
    },
    {
      "inputs": [],
      "name": "feeReceiver",
      "outputs": [
        {
          "internalType": "address",
          "name": "",
          "type": "address"
        }
      ],
      "stateMutability": "view",
      "type": "function"
    },
    {
      "inputs": [
        {
          "internalType": "address",
          "name": "spender",
          "type": "address"
        },
        {
          "internalType": "uint256",
          "name": "addedValue",
          "type": "uint256"
        }
      ],
      "name": "increaseAllowance",
      "outputs": [
        {
          "internalType": "bool",
          "name": "",
          "type": "bool"
        }
      ],
      "stateMutability": "nonpayable",
      "type": "function"
    },
    {
      "inputs": [
        {
          "internalType": "address",
          "name": "",
          "type": "address"
        }
      ],
      "name": "lastStakedBlock",
      "outputs": [
        {
          "internalType": "uint256",
          "name": "",
          "type": "uint256"
        }
      ],
      "stateMutability": "view",
      "type": "function"
    },
    {
      "inputs": [],
      "name": "name",
      "outputs": [
        {
          "internalType": "string",
          "name": "",
          "type": "string"
        }
      ],
      "stateMutability": "view",
      "type": "function"
    },
    {
      "inputs": [],
      "name": "owner",
      "outputs": [
        {
          "internalType": "address",
          "name": "",
          "type": "address"
        }
      ],
      "stateMutability": "view",
      "type": "function"
    },
    {
      "inputs": [],
      "name": "renounceOwnership",
      "outputs": [],
      "stateMutability": "nonpayable",
      "type": "function"
    },
    {
      "inputs": [
        {
          "internalType": "address",
          "name": "",
          "type": "address"
        }
      ],
      "name": "rewardBalances",
      "outputs": [
        {
          "internalType": "uint256",
          "name": "",
          "type": "uint256"
        }
      ],
      "stateMutability": "view",
      "type": "function"
    },
    {
      "inputs": [],
      "name": "rewardRatePerBlock",
      "outputs": [
        {
          "internalType": "uint256",
          "name": "",
          "type": "uint256"
        }
      ],
      "stateMutability": "view",
      "type": "function"
    },
    {
      "inputs": [
        {
          "internalType": "address",
          "name": "",
          "type": "address"
        }
      ],
      "name": "stakes",
      "outputs": [
        {
          "internalType": "uint256",
          "name": "",
          "type": "uint256"
        }
      ],
      "stateMutability": "view",
      "type": "function"
    },
    {
      "inputs": [],
      "name": "symbol",
      "outputs": [
        {
          "internalType": "string",
          "name": "",
          "type": "string"
        }
      ],
      "stateMutability": "view",
      "type": "function"
    },
    {
      "inputs": [],
      "name": "totalSupply",
      "outputs": [
        {
          "internalType": "uint256",
          "name": "",
          "type": "uint256"
        }
      ],
      "stateMutability": "view",
      "type": "function"
    },
    {
      "inputs": [],
      "name": "transactionFeePercentage",
      "outputs": [
        {
          "internalType": "uint256",
          "name": "",
          "type": "uint256"
        }
      ],
      "stateMutability": "view",
      "type": "function"
    },
    {
      "inputs": [
        {
          "internalType": "address",
          "name": "to",
          "type": "address"
        },
        {
          "internalType": "uint256",
          "name": "amount",
          "type": "uint256"
        }
      ],
      "name": "transfer",
      "outputs": [
        {
          "internalType": "bool",
          "name": "",
          "type": "bool"
        }
      ],
      "stateMutability": "nonpayable",
      "type": "function"
    },
    {
      "inputs": [
        {
          "internalType": "address",
          "name": "from",
          "type": "address"
        },
        {
          "internalType": "address",
          "name": "to",
          "type": "address"
        },
        {
          "internalType": "uint256",
          "name": "amount",
          "type": "uint256"
        }
      ],
      "name": "transferFrom",
      "outputs": [
        {
          "internalType": "bool",
          "name": "",
          "type": "bool"
        }
      ],
      "stateMutability": "nonpayable",
      "type": "function"
    },
    {
      "inputs": [
        {
          "internalType": "address",
          "name": "newOwner",
          "type": "address"
        }
      ],
      "name": "transferOwnership",
      "outputs": [],
      "stateMutability": "nonpayable",
      "type": "function"
    },
    {
      "inputs": [
        {
          "internalType": "uint256",
          "name": "_transactionFeePercentage",
          "type": "uint256"
        },
        {
          "internalType": "uint256",
          "name": "_burnPercentage",
          "type": "uint256"
        },
        {
          "internalType": "address",
          "name": "_feeReceiver",
          "type": "address"
        }
      ],
      "name": "updateParameters",
      "outputs": [],
      "stateMutability": "nonpayable",
      "type": "function"
    },
    {
      "inputs": [
        {
          "internalType": "address",
          "name": "serviceProvider",
          "type": "address"
        },
        {
          "internalType": "uint256",
          "name": "amount",
          "type": "uint256"
        }
      ],
      "name": "payForService",
      "outputs": [],
      "stateMutability": "nonpayable",
      "type": "function"
    },
    {
      "inputs": [
        {
          "internalType": "address",
          "name": "provider",
          "type": "address"
        },
        {
          "internalType": "uint256",
          "name": "amount",
          "type": "uint256"
        }
      ],
      "name": "createEscrow",
      "outputs": [],
      "stateMutability": "nonpayable",
      "type": "function"
    },
    {
      "inputs": [
        {
          "internalType": "uint256",
          "name": "escrowId",
          "type": "uint256"
        }
      ],
      "name": "completeEscrow",
      "outputs": [],
      "stateMutability": "nonpayable",
      "type": "function"
    },
    {
      "inputs": [
        {
          "internalType": "uint256",
          "name": "escrowId",
          "type": "uint256"
        }
      ],
      "name": "refundEscrow",
      "outputs": [],
      "stateMutability": "nonpayable",
      "type": "function"
    },
    {
      "inputs": [
        {
          "internalType": "uint256",
          "name": "amount",
          "type": "uint256"
        }
      ],
      "name": "stake",
      "outputs": [],
      "stateMutability": "nonpayable",
      "type": "function"
    },
    {
      "inputs": [
        {
          "internalType": "uint256",
          "name": "amount",
          "type": "uint256"
        }
      ],
      "name": "unstake",
      "outputs": [],
      "stateMutability": "nonpayable",
      "type": "function"
    }
  ],
  "bytecode": "0x60806040523480156200001157600080fd5b506040518060400160405280600c81526020016b29b2b93b34b1b2aa37b5b2b760a11b8152506040518060400160405280600381526020016253544b60e81b8152508160039081620000649190620002b2565b506004620000738282620002b2565b505050620000906200008a620000ed60201b60201c565b620000f1565b6000620000a06012600a62000493565b620000b09063ee6b2800620004ab565b9050620000be338262000143565b5060026006556001600755600880546001600160a01b03191633179055670de0b6b3a7640000600b55620004db565b3390565b600580546001600160a01b038381166001600160a01b0319831681179093556040519116919082907f8be0079c531659141344cd1fd0a4f28419497f9722a3daafe3b4186f6b6457e090600090a35050565b6001600160a01b0382166200019e5760405162461bcd60e51b815260206004820152601f60248201527f45524332303a206d696e7420746f20746865207a65726f206164647265737300604482015260640160405180910390fd5b8060026000828254620001b29190620004c5565b90915550506001600160a01b038216600081815260208181526040808320805486019055518481527fddf252ad1be2c89b69c2b068fc378daa952ba7f163c4a11628f55a4df523b3ef910160405180910390a35050565b505050565b634e487b7160e01b600052604160045260246000fd5b600181811c908216806200023957607f821691505b6020821081036200025a57634e487b7160e01b600052602260045260246000fd5b50919050565b601f8211156200020957600081815260208120601f850160051c81016020861015620002895750805b601f850160051c820191505b81811015620002aa5782815560010162000295565b505050505050565b81516001600160401b03811115620002ce57620002ce6200020e565b620002e681620002df845462000224565b8462000260565b602080601f8311600181146200031e5760008415620003055750858301515b600019600386901b1c1916600185901b178555620002aa565b600085815260208120601f198616915b828110156200034f578886015182559484019460019091019084016200032e565b50858210156200036e5787850151600019600388901b60f8161c191681555b5050505050600190811b01905550565b634e487b7160e01b600052601160045260246000fd5b600181815b80851115620003d5578160001904821115620003b957620003b96200037e565b80851615620003c757918102915b93841c939080029062000399565b509250929050565b600082620003ee575060016200048d565b81620003fd575060006200048d565b8160018114620004165760028114620004215762000441565b60019150506200048d565b60ff8411156200043557620004356200037e565b50506001821b6200048d565b5060208310610133831016604e8410600b841016171562000466575081810a6200048d565b62000472838362000394565b80600019048211156200048957620004896200037e565b0290505b92915050565b6000620004a460ff841683620003dd565b9392505050565b80820281158282048414176200048d576200048d6200037e565b808201808211156200048d576200048d6200037e565b6118aa80620004eb6000396000f3fe608060405234801561001057600080fd5b50600436106101da5760003560e01c80639087049211610104578063bbb26c63116100a2578063df3e0a1d11610071578063df3e0a1d1461049e578063e99861db146104b1578063f01f20df146104ba578063f2fde38b146104c357600080fd5b8063bbb26c631461045c578063bc21c0101461046f578063c7ceafea14610482578063dd62ed3e1461048b57600080fd5b8063a457c2d7116100de578063a457c2d714610410578063a694fc3a14610423578063a9059cbb14610436578063b3f006741461044957600080fd5b806390870492146103df57806393c8dc6d146103e857806395d89b411461040857600080fd5b80632e17de781161017c5780634614874e1161014b5780634614874e1461037657806370a0823114610389578063715018a6146103b25780638da5cb5b146103ba57600080fd5b80632e17de781461032c578063313ce56714610341578063356f9dfd14610350578063395093511461036357600080fd5b8063095ea7b3116101b8578063095ea7b3146102ce57806316934fc4146102f157806318160ddd1461031157806323b872dd1461031957600080fd5b8063012f52ee146101df5780630686b59f1461028b57806306fdde03146102b9575b600080fd5b6102406101ed36600461160b565b600d6020526000908152604090208054600182015460028301546003909301546001600160a01b0392831693919092169160ff808216916101008104821691620100008204811691630100000090041687565b604080516001600160a01b03988916815297909616602088015294860193909352901515606085015215156080840152151560a0830152151560c082015260e0015b60405180910390f35b6102ab610299366004611640565b600c6020526000908152604090205481565b604051908152602001610282565b6102c16104d6565b6040516102829190611662565b6102e16102dc3660046116b0565b610568565b6040519015158152602001610282565b6102ab6102ff366004611640565b60096020526000908152604090205481565b6002546102ab565b6102e16103273660046116da565b610582565b61033f61033a36600461160b565b6105a6565b005b60405160128152602001610282565b61033f61035e36600461160b565b6106b2565b6102e16103713660046116b0565b6108c7565b61033f6103843660046116b0565b6108e9565b6102ab610397366004611640565b6001600160a01b031660009081526020819052604090205490565b61033f610a4f565b6005546001600160a01b03165b6040516001600160a01b039091168152602001610282565b6102ab600b5481565b6102ab6103f6366004611640565b600a6020526000908152604090205481565b6102c1610a63565b6102e161041e3660046116b0565b610a72565b61033f61043136600461160b565b610aed565b6102e16104443660046116b0565b610b98565b6008546103c7906001600160a01b031681565b61033f61046a3660046116b0565b610ba6565b61033f61047d366004611716565b610c24565b6102ab600e5481565b6102ab61049936600461174b565b610d6a565b61033f6104ac36600461160b565b610d95565b6102ab60065481565b6102ab60075481565b61033f6104d1366004611640565b610f0f565b6060600380546104e59061177e565b80601f01602080910402602001604051908101604052809291908181526020018280546105119061177e565b801561055e5780601f106105335761010080835404028352916020019161055e565b820191906000526020600020905b81548152906001019060200180831161054157829003601f168201915b5050505050905090565b600033610576818585610f88565b60019150505b92915050565b6000336105908582856110ad565b61059b858585611127565b506001949350505050565b3360009081526009602052604090205481111561060a5760405162461bcd60e51b815260206004820152601b60248201527f496e73756666696369656e74207374616b65642062616c616e6365000000000060448201526064015b60405180910390fd5b610613336111bd565b33600090815260096020526040812080548392906106329084906117ce565b9091555050336000818152600a602052604090205461065c91309161065790856117e1565b611127565b336000818152600a6020526040808220829055517f7fc4727e062e336010f2c282598ef5f14facb3de68cf8195c2f23e1454b2b74e916106a791859190918252602082015260400190565b60405180910390a250565b6000818152600d60205260409020600381015460ff16156107105760405162461bcd60e51b8152602060048201526018602482015277115cd8dc9bddc8185b1c9958591e4818dbdb5c1b195d195960421b6044820152606401610601565b6003810154610100900460ff16156107645760405162461bcd60e51b8152602060048201526017602482015276115cd8dc9bddc8185b1c9958591e481c99599d5b991959604a1b6044820152606401610601565b80546001600160a01b0316331480610788575060018101546001600160a01b031633145b6107e95760405162461bcd60e51b815260206004820152602c60248201527f4f6e6c7920636c69656e74206f722070726f76696465722063616e207265717560448201526b195cdd0818481c99599d5b9960a21b6064820152608401610601565b80546001600160a01b031633036108125760038101805462ff000019166201000017905561083c565b60018101546001600160a01b0316330361083c5760038101805463ff000000191663010000001790555b600381015462010000900460ff168015610861575060038101546301000000900460ff165b156108c357805460028201546108849130916001600160a01b0390911690611127565b60038101805463ffffff00191661010017905560405182907f2babb5cd458b6d41108d6d793a75e29ca524e7caa20e2da6c994462010920a7290600090a25b5050565b6000336105768185856108da8383610d6a565b6108e491906117e1565b610f88565b336000908152602081905260409020548111156109185760405162461bcd60e51b8152600401610601906117f4565b610923333083611127565b6040805160e081018252338082526001600160a01b0385811660208085018281528587018881526000606088018181526080890182815260a08a0183815260c08b01848152600e80548652600d8952948d90209b518c54908b166001600160a01b0319918216178d55965160018d01805491909b16971696909617909855925160028a01555160039098018054925196519351151563010000000263ff0000001994151562010000029490941663ffff0000199715156101000261ff00199a15159a909a1661ffff19909416939093179890981795909516171790945590549351858152909391927f9405ad0a6208539879349284d71265479b1623846f70303da1f9890d6e8c10a7910160405180910390a4600e8054906000610a4683611822565b91905055505050565b610a57611291565b610a6160006112eb565b565b6060600480546104e59061177e565b60003381610a808286610d6a565b905083811015610ae05760405162461bcd60e51b815260206004820152602560248201527f45524332303a2064656372656173656420616c6c6f77616e63652062656c6f77604482015264207a65726f60d81b6064820152608401610601565b61059b8286868403610f88565b33600090815260208190526040902054811115610b1c5760405162461bcd60e51b8152600401610601906117f4565b610b27333083611127565b610b30336111bd565b3360009081526009602052604081208054839290610b4f9084906117e1565b9091555050336000818152600c602052604090819020439055517f9e71bc8eea02a63969f509818f2dafb9254532904319f9dbda79b67bd34a5f3d906106a79084815260200190565b600033610576818585611127565b33600090815260208190526040902054811115610bd55760405162461bcd60e51b8152600401610601906117f4565b610be0338383611127565b6040518181526001600160a01b0383169033907fd8bc7d80b48a2a46beec3b50e916bebb1f854bbd3a9d94c55ac3ff4d42f5d7499060200160405180910390a35050565b610c2c611291565b600a831115610c6c5760405162461bcd60e51b815260206004820152600c60248201526b08ccaca40e8dede40d0d2ced60a31b6044820152606401610601565b600a821115610cad5760405162461bcd60e51b815260206004820152600d60248201526c084eae4dc40e8dede40d0d2ced609b1b6044820152606401610601565b6001600160a01b038116610cfb5760405162461bcd60e51b8152602060048201526015602482015274496e76616c6964206f776e6572206164647265737360581b6044820152606401610601565b60068390556007829055600880546001600160a01b0319166001600160a01b0383169081179091556040805185815260208101859052908101919091527f5a664f164611b1f41ae706c3abacfcc9d11864e21150d5e7ed5304787805779c9060600160405180910390a1505050565b6001600160a01b03918216600090815260016020908152604080832093909416825291909152205490565b6000818152600d60205260409020600381015460ff1615610df35760405162461bcd60e51b8152602060048201526018602482015277115cd8dc9bddc8185b1c9958591e4818dbdb5c1b195d195960421b6044820152606401610601565b6003810154610100900460ff1615610e475760405162461bcd60e51b8152602060048201526017602482015276115cd8dc9bddc8185b1c9958591e481c99599d5b991959604a1b6044820152606401610601565b80546001600160a01b03163314610eb05760405162461bcd60e51b815260206004820152602760248201527f4f6e6c792074686520636c69656e742063616e20636f6d706c6574652074686560448201526620657363726f7760c81b6064820152608401610601565b60018101546002820154610ed19130916001600160a01b0390911690611127565b60038101805460ff1916600117905560405182907f9285bd636dda01bef18996aa38303bb742f6c67a6941646dddb17630cb492c2e90600090a25050565b610f17611291565b6001600160a01b038116610f7c5760405162461bcd60e51b815260206004820152602660248201527f4f776e61626c653a206e6577206f776e657220697320746865207a65726f206160448201526564647265737360d01b6064820152608401610601565b610f85816112eb565b50565b6001600160a01b038316610fea5760405162461bcd60e51b8152602060048201526024808201527f45524332303a20617070726f76652066726f6d20746865207a65726f206164646044820152637265737360e01b6064820152608401610601565b6001600160a01b03821661104b5760405162461bcd60e51b815260206004820152602260248201527f45524332303a20617070726f766520746f20746865207a65726f206164647265604482015261737360f01b6064820152608401610601565b6001600160a01b0383811660008181526001602090815260408083209487168084529482529182902085905590518481527f8c5be1e5ebec7d5bd14f71427d1e84f3dd0314c0f7b2291e5b200ac8c7c3b92591015b60405180910390a3505050565b60006110b98484610d6a565b9050600019811461112157818110156111145760405162461bcd60e51b815260206004820152601d60248201527f45524332303a20696e73756666696369656e7420616c6c6f77616e63650000006044820152606401610601565b6111218484848403610f88565b50505050565b6000606460065483611139919061183b565b6111439190611852565b90506000606460075484611157919061183b565b6111619190611852565b905060008161117084866117ce565b61117a91906117ce565b9050821561119a5760085461119a9087906001600160a01b03168561133d565b81156111aa576111aa86836114e1565b6111b586868361133d565b505050505050565b6001600160a01b0381166000908152600c602052604090205415611275576001600160a01b0381166000908152600c60205260408120546111fe90436117ce565b600b546001600160a01b038416600090815260096020526040902054919250670de0b6b3a76400009161123290849061183b565b61123c919061183b565b6112469190611852565b6001600160a01b0383166000908152600a60205260408120805490919061126e9084906117e1565b9091555050505b6001600160a01b03166000908152600c60205260409020439055565b6005546001600160a01b03163314610a615760405162461bcd60e51b815260206004820181905260248201527f4f776e61626c653a2063616c6c6572206973206e6f7420746865206f776e65726044820152606401610601565b600580546001600160a01b038381166001600160a01b0319831681179093556040519116919082907f8be0079c531659141344cd1fd0a4f28419497f9722a3daafe3b4186f6b6457e090600090a35050565b6001600160a01b0383166113a15760405162461bcd60e51b815260206004820152602560248201527f45524332303a207472616e736665722066726f6d20746865207a65726f206164604482015264647265737360d81b6064820152608401610601565b6001600160a01b0382166114035760405162461bcd60e51b815260206004820152602360248201527f45524332303a207472616e7366657220746f20746865207a65726f206164647260448201526265737360e81b6064820152608401610601565b6001600160a01b0383166000908152602081905260409020548181101561147b5760405162461bcd60e51b815260206004820152602660248201527f45524332303a207472616e7366657220616d6f756e7420657863656564732062604482015265616c616e636560d01b6064820152608401610601565b6001600160a01b03848116600081815260208181526040808320878703905593871680835291849020805487019055925185815290927fddf252ad1be2c89b69c2b068fc378daa952ba7f163c4a11628f55a4df523b3ef910160405180910390a3611121565b6001600160a01b0382166115415760405162461bcd60e51b815260206004820152602160248201527f45524332303a206275726e2066726f6d20746865207a65726f206164647265736044820152607360f81b6064820152608401610601565b6001600160a01b038216600090815260208190526040902054818110156115b55760405162461bcd60e51b815260206004820152602260248201527f45524332303a206275726e20616d6f756e7420657863656564732062616c616e604482015261636560f01b6064820152608401610601565b6001600160a01b0383166000818152602081815260408083208686039055600280548790039055518581529192917fddf252ad1be2c89b69c2b068fc378daa952ba7f163c4a11628f55a4df523b3ef91016110a0565b60006020828403121561161d57600080fd5b5035919050565b80356001600160a01b038116811461163b57600080fd5b919050565b60006020828403121561165257600080fd5b61165b82611624565b9392505050565b600060208083528351808285015260005b8181101561168f57858101830151858201604001528201611673565b506000604082860101526040601f19601f8301168501019250505092915050565b600080604083850312156116c357600080fd5b6116cc83611624565b946020939093013593505050565b6000806000606084860312156116ef57600080fd5b6116f884611624565b925061170660208501611624565b9150604084013590509250925092565b60008060006060848603121561172b57600080fd5b833592506020840135915061174260408501611624565b90509250925092565b6000806040838503121561175e57600080fd5b61176783611624565b915061177560208401611624565b90509250929050565b600181811c9082168061179257607f821691505b6020821081036117b257634e487b7160e01b600052602260045260246000fd5b50919050565b634e487b7160e01b600052601160045260246000fd5b8181038181111561057c5761057c6117b8565b8082018082111561057c5761057c6117b8565b602080825260149082015273496e73756666696369656e742062616c616e636560601b604082015260600190565b600060018201611834576118346117b8565b5060010190565b808202811582820484141761057c5761057c6117b8565b60008261186f57634e487b7160e01b600052601260045260246000fd5b50049056fea26469706673582212206d56153ebd65dda1690d3c626009f67624fa3eae3720cd5691e064bcaa98cec664736f6c63430008140033",
  "immutableReferences": {},
  "source": "// SPDX-License-Identifier: UNLICENSED\r\npragma solidity ^0.8.20;\r\n\r\nimport \"@openzeppelin/contracts/token/ERC20/ERC20.sol\";\r\nimport \"@openzeppelin/contracts/access/Ownable.sol\";\r\n\r\ncontract ServiceToken is ERC20, Ownable {\r\n    uint256 public transactionFeePercentage; // Fee percentage on transfers\r\n    uint256 public burnPercentage; // Percentage of transfer amount to burn\r\n    address public feeReceiver; // Renamed variable to avoid conflict with Ownable's owner()\r\n\r\n    // Staking-related variables\r\n    mapping(address => uint256) public stakes;\r\n    mapping(address => uint256) public rewardBalances;\r\n    uint256 public rewardRatePerBlock; // Reward rate for staking\r\n    mapping(address => uint256) public lastStakedBlock;\r\n\r\n    // Escrow-related variables\r\n    struct Escrow {\r\n        address client;\r\n        address provider;\r\n        uint256 amount;\r\n        bool completed;\r\n        bool refunded;\r\n        bool clientAgreed;\r\n        bool providerAgreed;\r\n    }\r\n    mapping(uint256 => Escrow) public escrows;\r\n    uint256 public escrowCounter;\r\n\r\n    // Events\r\n    event ParametersUpdated(uint256 feePercentage, uint256 burnPercentage, address owner);\r\n    event Staked(address indexed staker, uint256 amount);\r\n    event Unstaked(address indexed staker, uint256 amount, uint256 rewards);\r\n    event ServicePayment(address indexed client, address indexed provider, uint256 amount);\r\n    event EscrowCreated(uint256 indexed escrowId, address indexed client, address indexed provider, uint256 amount);\r\n    event EscrowCompleted(uint256 indexed escrowId);\r\n    event EscrowRefunded(uint256 indexed escrowId);\r\n\r\n    constructor() ERC20(\"ServiceToken\", \"STK\") {\r\n        uint256 MAX_SUPPLY = 4_000_000_000 * (10 ** decimals());\r\n        _mint(msg.sender, MAX_SUPPLY);\r\n        transactionFeePercentage = 2; \r\n        burnPercentage = 1; \r\n        feeReceiver = msg.sender;  \r\n        rewardRatePerBlock = 1e18;  \r\n    }\r\n\r\n    function updateParameters(uint256 _transactionFeePercentage, uint256 _burnPercentage, address _feeReceiver) external onlyOwner {\r\n        require(_transactionFeePercentage <= 10, \"Fee too high\");\r\n        require(_burnPercentage <= 10, \"Burn too high\");\r\n        require(_feeReceiver != address(0), \"Invalid owner address\");\r\n\r\n        transactionFeePercentage = _transactionFeePercentage;\r\n        burnPercentage = _burnPercentage;\r\n        feeReceiver = _feeReceiver;\r\n\r\n        emit ParametersUpdated(_transactionFeePercentage, _burnPercentage, _feeReceiver);\r\n    }\r\n\r\n    function payForService(address serviceProvider, uint256 amount) external {\r\n        require(balanceOf(msg.sender) >= amount, \"Insufficient balance\");\r\n        _transfer(msg.sender, serviceProvider, amount);\r\n        emit ServicePayment(msg.sender, serviceProvider, amount);\r\n    }\r\n\r\n    // Escrow functions\r\n    function createEscrow(address provider, uint256 amount) external {\r\n        require(balanceOf(msg.sender) >= amount, \"Insufficient balance\");\r\n        _transfer(msg.sender, address(this), amount);\r\n\r\n        escrows[escrowCounter] = Escrow({\r\n            client: msg.sender,\r\n            provider: provider,\r\n            amount: amount,\r\n            completed: false,\r\n            refunded: false,\r\n            clientAgreed: false,\r\n            providerAgreed: false\r\n        });\r\n\r\n        emit EscrowCreated(escrowCounter, msg.sender, provider, amount);\r\n        escrowCounter++;\r\n    }\r\n\r\n    function completeEscrow(uint256 escrowId) external {\r\n        Escrow storage escrow = escrows[escrowId];\r\n        require(!escrow.completed, \"Escrow already completed\");\r\n        require(!escrow.refunded, \"Escrow already refunded\");\r\n        require(escrow.client == msg.sender, \"Only the client can complete the escrow\");\r\n\r\n        _transfer(address(this), escrow.provider, escrow.amount);\r\n        escrow.completed = true;\r\n\r\n        emit EscrowCompleted(escrowId);\r\n    }\r\n\r\n    function refundEscrow(uint256 escrowId) external {\r\n        Escrow storage escrow = escrows[escrowId];\r\n        require(!escrow.completed, \"Escrow already completed\");\r\n        require(!escrow.refunded, \"Escrow already refunded\");\r\n        require(\r\n            msg.sender == escrow.client || msg.sender == escrow.provider,\r\n            \"Only client or provider can request a refund\"\r\n        );\r\n\r\n         if (msg.sender == escrow.client) {\r\n            escrow.clientAgreed = true;\r\n        } else if (msg.sender == escrow.provider) {\r\n            escrow.providerAgreed = true;\r\n        }\r\n\r\n        if (escrow.clientAgreed && escrow.providerAgreed) {\r\n            _transfer(address(this), escrow.client, escrow.amount);\r\n            escrow.refunded = true;\r\n            escrow.clientAgreed = false;\r\n            escrow.providerAgreed = false;\r\n\r\n            emit EscrowRefunded(escrowId);\r\n        }\r\n    }\r\n\r\n     function stake(uint256 amount) external {\r\n        require(balanceOf(msg.sender) >= amount, \"Insufficient balance\");\r\n\r\n        _transfer(msg.sender, address(this), amount);\r\n        _updateRewards(msg.sender);\r\n\r\n        stakes[msg.sender] += amount;\r\n        lastStakedBlock[msg.sender] = block.number;\r\n\r\n        emit Staked(msg.sender, amount);\r\n    }\r\n\r\n    function unstake(uint256 amount) external {\r\n        require(stakes[msg.sender] >= amount, \"Insufficient staked balance\");\r\n\r\n        _updateRewards(msg.sender);\r\n        stakes[msg.sender] -= amount;\r\n\r\n        _transfer(address(this), msg.sender, amount + rewardBalances[msg.sender]);\r\n        rewardBalances[msg.sender] = 0;\r\n\r\n        emit Unstaked(msg.sender, amount, rewardBalances[msg.sender]);\r\n    }\r\n\r\n    function _updateRewards(address staker) internal {\r\n        if (lastStakedBlock[staker] > 0) {\r\n            uint256 blocks = block.number - lastStakedBlock[staker];\r\n            rewardBalances[staker] += (stakes[staker] * blocks * rewardRatePerBlock) / 1e18;\r\n        }\r\n        lastStakedBlock[staker] = block.number;\r\n    }\r\n\r\n     function _transfer(address sender, address recipient, uint256 amount) internal override {\r\n        uint256 feeAmount = (amount * transactionFeePercentage) / 100;\r\n        uint256 burnAmount = (amount * burnPercentage) / 100;\r\n        uint256 transferAmount = amount - feeAmount - burnAmount;\r\n\r\n        if (feeAmount > 0) {\r\n            super._transfer(sender, feeReceiver, feeAmount); // Changed to feeReceiver\r\n        }\r\n        if (burnAmount > 0) {\r\n            _burn(sender, burnAmount);\r\n        }\r\n        super._transfer(sender, recipient, transferAmount);\r\n    }\r\n}\r\n",
  "sourcePath": "C:\\Users\\PMLS\\Desktop\\hyperia token\\contracts\\Hyperia.sol",
  "compiler": {
    "name": "solc",
    "version": "0.8.20+commit.a1b79de6.Emscripten.clang"
  },
  "schemaVersion": "3.4.16",
  "updatedAt": "2025-01-20T09:06:44.194Z",
  "devdoc": {
    "events": {
      "Approval(address,address,uint256)": {
        "details": "Emitted when the allowance of a `spender` for an `owner` is set by a call to {approve}. `value` is the new allowance."
      },
      "Transfer(address,address,uint256)": {
        "details": "Emitted when `value` tokens are moved from one account (`from`) to another (`to`). Note that `value` may be zero."
      }
    },
    "kind": "dev",
    "methods": {
      "allowance(address,address)": {
        "details": "See {IERC20-allowance}."
      },
      "approve(address,uint256)": {
        "details": "See {IERC20-approve}. NOTE: If `amount` is the maximum `uint256`, the allowance is not updated on `transferFrom`. This is semantically equivalent to an infinite approval. Requirements: - `spender` cannot be the zero address."
      },
      "balanceOf(address)": {
        "details": "See {IERC20-balanceOf}."
      },
      "decimals()": {
        "details": "Returns the number of decimals used to get its user representation. For example, if `decimals` equals `2`, a balance of `505` tokens should be displayed to a user as `5.05` (`505 / 10 ** 2`). Tokens usually opt for a value of 18, imitating the relationship between Ether and Wei. This is the default value returned by this function, unless it's overridden. NOTE: This information is only used for _display_ purposes: it in no way affects any of the arithmetic of the contract, including {IERC20-balanceOf} and {IERC20-transfer}."
      },
      "decreaseAllowance(address,uint256)": {
        "details": "Atomically decreases the allowance granted to `spender` by the caller. This is an alternative to {approve} that can be used as a mitigation for problems described in {IERC20-approve}. Emits an {Approval} event indicating the updated allowance. Requirements: - `spender` cannot be the zero address. - `spender` must have allowance for the caller of at least `subtractedValue`."
      },
      "increaseAllowance(address,uint256)": {
        "details": "Atomically increases the allowance granted to `spender` by the caller. This is an alternative to {approve} that can be used as a mitigation for problems described in {IERC20-approve}. Emits an {Approval} event indicating the updated allowance. Requirements: - `spender` cannot be the zero address."
      },
      "name()": {
        "details": "Returns the name of the token."
      },
      "owner()": {
        "details": "Returns the address of the current owner."
      },
      "renounceOwnership()": {
        "details": "Leaves the contract without owner. It will not be possible to call `onlyOwner` functions. Can only be called by the current owner. NOTE: Renouncing ownership will leave the contract without an owner, thereby disabling any functionality that is only available to the owner."
      },
      "symbol()": {
        "details": "Returns the symbol of the token, usually a shorter version of the name."
      },
      "totalSupply()": {
        "details": "See {IERC20-totalSupply}."
      },
      "transfer(address,uint256)": {
        "details": "See {IERC20-transfer}. Requirements: - `to` cannot be the zero address. - the caller must have a balance of at least `amount`."
      },
      "transferFrom(address,address,uint256)": {
        "details": "See {IERC20-transferFrom}. Emits an {Approval} event indicating the updated allowance. This is not required by the EIP. See the note at the beginning of {ERC20}. NOTE: Does not update the allowance if the current allowance is the maximum `uint256`. Requirements: - `from` and `to` cannot be the zero address. - `from` must have a balance of at least `amount`. - the caller must have allowance for ``from``'s tokens of at least `amount`."
      },
      "transferOwnership(address)": {
        "details": "Transfers ownership of the contract to a new account (`newOwner`). Can only be called by the current owner."
      }
    },
    "version": 1
  },
  "userdoc": {
    "kind": "user",
    "methods": {},
    "version": 1
  }
}