{
  "contractName": "Token",
  "abi": [
    {
      "inputs": [],
      "stateMutability": "nonpayable",
      "type": "constructor"
    },
    {
      "anonymous": false,
      "inputs": [
        {
          "indexed": true,
          "internalType": "address",
          "name": "owner",
          "type": "address"
        },
        {
          "indexed": true,
          "internalType": "address",
          "name": "spender",
          "type": "address"
        },
        {
          "indexed": false,
          "internalType": "uint256",
          "name": "value",
          "type": "uint256"
        }
      ],
      "name": "Approval",
      "type": "event"
    },
    {
      "anonymous": false,
      "inputs": [
        {
          "indexed": false,
          "internalType": "uint256",
          "name": "feePercentage",
          "type": "uint256"
        },
        {
          "indexed": false,
          "internalType": "uint256",
          "name": "burnPercentage",
          "type": "uint256"
        },
        {
          "indexed": false,
          "internalType": "address",
          "name": "treasury",
          "type": "address"
        }
      ],
      "name": "ParametersUpdated",
      "type": "event"
    },
    {
      "anonymous": false,
      "inputs": [
        {
          "indexed": true,
          "internalType": "address",
          "name": "from",
          "type": "address"
        },
        {
          "indexed": true,
          "internalType": "address",
          "name": "to",
          "type": "address"
        },
        {
          "indexed": false,
          "internalType": "uint256",
          "name": "value",
          "type": "uint256"
        }
      ],
      "name": "Transfer",
      "type": "event"
    },
    {
      "inputs": [
        {
          "internalType": "address",
          "name": "owner",
          "type": "address"
        },
        {
          "internalType": "address",
          "name": "spender",
          "type": "address"
        }
      ],
      "name": "allowance",
      "outputs": [
        {
          "internalType": "uint256",
          "name": "",
          "type": "uint256"
        }
      ],
      "stateMutability": "view",
      "type": "function",
      "constant": true
    },
    {
      "inputs": [
        {
          "internalType": "address",
          "name": "spender",
          "type": "address"
        },
        {
          "internalType": "uint256",
          "name": "amount",
          "type": "uint256"
        }
      ],
      "name": "approve",
      "outputs": [
        {
          "internalType": "bool",
          "name": "",
          "type": "bool"
        }
      ],
      "stateMutability": "nonpayable",
      "type": "function"
    },
    {
      "inputs": [
        {
          "internalType": "address",
          "name": "account",
          "type": "address"
        }
      ],
      "name": "balanceOf",
      "outputs": [
        {
          "internalType": "uint256",
          "name": "",
          "type": "uint256"
        }
      ],
      "stateMutability": "view",
      "type": "function",
      "constant": true
    },
    {
      "inputs": [],
      "name": "burnPercentage",
      "outputs": [
        {
          "internalType": "uint256",
          "name": "",
          "type": "uint256"
        }
      ],
      "stateMutability": "view",
      "type": "function",
      "constant": true
    },
    {
      "inputs": [],
      "name": "decimals",
      "outputs": [
        {
          "internalType": "uint8",
          "name": "",
          "type": "uint8"
        }
      ],
      "stateMutability": "view",
      "type": "function",
      "constant": true
    },
    {
      "inputs": [
        {
          "internalType": "address",
          "name": "spender",
          "type": "address"
        },
        {
          "internalType": "uint256",
          "name": "subtractedValue",
          "type": "uint256"
        }
      ],
      "name": "decreaseAllowance",
      "outputs": [
        {
          "internalType": "bool",
          "name": "",
          "type": "bool"
        }
      ],
      "stateMutability": "nonpayable",
      "type": "function"
    },
    {
      "inputs": [
        {
          "internalType": "address",
          "name": "spender",
          "type": "address"
        },
        {
          "internalType": "uint256",
          "name": "addedValue",
          "type": "uint256"
        }
      ],
      "name": "increaseAllowance",
      "outputs": [
        {
          "internalType": "bool",
          "name": "",
          "type": "bool"
        }
      ],
      "stateMutability": "nonpayable",
      "type": "function"
    },
    {
      "inputs": [],
      "name": "name",
      "outputs": [
        {
          "internalType": "string",
          "name": "",
          "type": "string"
        }
      ],
      "stateMutability": "view",
      "type": "function",
      "constant": true
    },
    {
      "inputs": [],
      "name": "symbol",
      "outputs": [
        {
          "internalType": "string",
          "name": "",
          "type": "string"
        }
      ],
      "stateMutability": "view",
      "type": "function",
      "constant": true
    },
    {
      "inputs": [],
      "name": "totalSupply",
      "outputs": [
        {
          "internalType": "uint256",
          "name": "",
          "type": "uint256"
        }
      ],
      "stateMutability": "view",
      "type": "function",
      "constant": true
    },
    {
      "inputs": [],
      "name": "transactionFeePercentage",
      "outputs": [
        {
          "internalType": "uint256",
          "name": "",
          "type": "uint256"
        }
      ],
      "stateMutability": "view",
      "type": "function",
      "constant": true
    },
    {
      "inputs": [
        {
          "internalType": "address",
          "name": "to",
          "type": "address"
        },
        {
          "internalType": "uint256",
          "name": "amount",
          "type": "uint256"
        }
      ],
      "name": "transfer",
      "outputs": [
        {
          "internalType": "bool",
          "name": "",
          "type": "bool"
        }
      ],
      "stateMutability": "nonpayable",
      "type": "function"
    },
    {
      "inputs": [
        {
          "internalType": "address",
          "name": "from",
          "type": "address"
        },
        {
          "internalType": "address",
          "name": "to",
          "type": "address"
        },
        {
          "internalType": "uint256",
          "name": "amount",
          "type": "uint256"
        }
      ],
      "name": "transferFrom",
      "outputs": [
        {
          "internalType": "bool",
          "name": "",
          "type": "bool"
        }
      ],
      "stateMutability": "nonpayable",
      "type": "function"
    },
    {
      "inputs": [],
      "name": "treasury",
      "outputs": [
        {
          "internalType": "address",
          "name": "",
          "type": "address"
        }
      ],
      "stateMutability": "view",
      "type": "function",
      "constant": true
    },
    {
      "inputs": [
        {
          "internalType": "uint256",
          "name": "_transactionFeePercentage",
          "type": "uint256"
        },
        {
          "internalType": "uint256",
          "name": "_burnPercentage",
          "type": "uint256"
        },
        {
          "internalType": "address",
          "name": "_treasury",
          "type": "address"
        }
      ],
      "name": "updateParameters",
      "outputs": [],
      "stateMutability": "nonpayable",
      "type": "function"
    },
    {
      "inputs": [
        {
          "internalType": "address",
          "name": "account",
          "type": "address"
        },
        {
          "internalType": "uint256",
          "name": "amount",
          "type": "uint256"
        }
      ],
      "name": "mint",
      "outputs": [],
      "stateMutability": "nonpayable",
      "type": "function"
    },
    {
      "inputs": [
        {
          "internalType": "address",
          "name": "account",
          "type": "address"
        },
        {
          "internalType": "uint256",
          "name": "amount",
          "type": "uint256"
        }
      ],
      "name": "burn",
      "outputs": [],
      "stateMutability": "nonpayable",
      "type": "function"
    }
  ],
  "bytecode": "0x60806040523480156200001157600080fd5b50604051806040016040528060078152602001664879706572696160c81b8152506040518060400160405280600381526020016204859560ec1b81525081600390816200005f919062000245565b5060046200006e828262000245565b505050600062000083620000d160201b60201c565b6200009090600a62000426565b620000a09063ee6b28006200043e565b9050620000ae3382620000d6565b5060026005556001600655600780546001600160a01b031916331790556200046e565b601290565b6001600160a01b038216620001315760405162461bcd60e51b815260206004820152601f60248201527f45524332303a206d696e7420746f20746865207a65726f206164647265737300604482015260640160405180910390fd5b806002600082825462000145919062000458565b90915550506001600160a01b038216600081815260208181526040808320805486019055518481527fddf252ad1be2c89b69c2b068fc378daa952ba7f163c4a11628f55a4df523b3ef910160405180910390a35050565b505050565b634e487b7160e01b600052604160045260246000fd5b600181811c90821680620001cc57607f821691505b602082108103620001ed57634e487b7160e01b600052602260045260246000fd5b50919050565b601f8211156200019c57600081815260208120601f850160051c810160208610156200021c5750805b601f850160051c820191505b818110156200023d5782815560010162000228565b505050505050565b81516001600160401b03811115620002615762000261620001a1565b6200027981620002728454620001b7565b84620001f3565b602080601f831160018114620002b15760008415620002985750858301515b600019600386901b1c1916600185901b1785556200023d565b600085815260208120601f198616915b82811015620002e257888601518255948401946001909101908401620002c1565b5085821015620003015787850151600019600388901b60f8161c191681555b5050505050600190811b01905550565b634e487b7160e01b600052601160045260246000fd5b600181815b80851115620003685781600019048211156200034c576200034c62000311565b808516156200035a57918102915b93841c93908002906200032c565b509250929050565b600082620003815750600162000420565b81620003905750600062000420565b8160018114620003a95760028114620003b457620003d4565b600191505062000420565b60ff841115620003c857620003c862000311565b50506001821b62000420565b5060208310610133831016604e8410600b8410161715620003f9575081810a62000420565b62000405838362000327565b80600019048211156200041c576200041c62000311565b0290505b92915050565b60006200043760ff84168362000370565b9392505050565b808202811582820484141762000420576200042062000311565b8082018082111562000420576200042062000311565b610d93806200047e6000396000f3fe608060405234801561001057600080fd5b506004361061010b5760003560e01c806370a08231116100a2578063a9059cbb11610071578063a9059cbb1461022f578063bc21c01014610242578063dd62ed3e14610255578063e99861db14610268578063f01f20df1461027157600080fd5b806370a08231146101d857806395d89b41146102015780639dc29fac14610209578063a457c2d71461021c57600080fd5b8063313ce567116100de578063313ce56714610176578063395093511461018557806340c10f191461019857806361d027b3146101ad57600080fd5b806306fdde0314610110578063095ea7b31461012e57806318160ddd1461015157806323b872dd14610163575b600080fd5b61011861027a565b6040516101259190610b54565b60405180910390f35b61014161013c366004610bbe565b61030c565b6040519015158152602001610125565b6002545b604051908152602001610125565b610141610171366004610be8565b610326565b60405160128152602001610125565b610141610193366004610bbe565b61034a565b6101ab6101a6366004610bbe565b61036c565b005b6007546101c0906001600160a01b031681565b6040516001600160a01b039091168152602001610125565b6101556101e6366004610c24565b6001600160a01b031660009081526020819052604090205490565b61011861037a565b6101ab610217366004610bbe565b610389565b61014161022a366004610bbe565b610393565b61014161023d366004610bbe565b610413565b6101ab610250366004610c46565b610421565b610155610263366004610c7b565b610567565b61015560055481565b61015560065481565b60606003805461028990610cae565b80601f01602080910402602001604051908101604052809291908181526020018280546102b590610cae565b80156103025780601f106102d757610100808354040283529160200191610302565b820191906000526020600020905b8154815290600101906020018083116102e557829003601f168201915b5050505050905090565b60003361031a818585610592565b60019150505b92915050565b6000336103348582856106b7565b61033f858585610731565b506001949350505050565b60003361031a81858561035d8383610567565b6103679190610cfe565b610592565b61037682826107c7565b5050565b60606004805461028990610cae565b6103768282610886565b600033816103a18286610567565b9050838110156104065760405162461bcd60e51b815260206004820152602560248201527f45524332303a2064656372656173656420616c6c6f77616e63652062656c6f77604482015264207a65726f60d81b60648201526084015b60405180910390fd5b61033f8286868403610592565b60003361031a818585610731565b600a8311156104615760405162461bcd60e51b815260206004820152600c60248201526b08ccaca40e8dede40d0d2ced60a31b60448201526064016103fd565b600a8211156104a25760405162461bcd60e51b815260206004820152600d60248201526c084eae4dc40e8dede40d0d2ced609b1b60448201526064016103fd565b6001600160a01b0381166104f85760405162461bcd60e51b815260206004820152601860248201527f496e76616c69642074726561737572792061646472657373000000000000000060448201526064016103fd565b60058390556006829055600780546001600160a01b0319166001600160a01b0383169081179091556040805185815260208101859052908101919091527f5a664f164611b1f41ae706c3abacfcc9d11864e21150d5e7ed5304787805779c9060600160405180910390a1505050565b6001600160a01b03918216600090815260016020908152604080832093909416825291909152205490565b6001600160a01b0383166105f45760405162461bcd60e51b8152602060048201526024808201527f45524332303a20617070726f76652066726f6d20746865207a65726f206164646044820152637265737360e01b60648201526084016103fd565b6001600160a01b0382166106555760405162461bcd60e51b815260206004820152602260248201527f45524332303a20617070726f766520746f20746865207a65726f206164647265604482015261737360f01b60648201526084016103fd565b6001600160a01b0383811660008181526001602090815260408083209487168084529482529182902085905590518481527f8c5be1e5ebec7d5bd14f71427d1e84f3dd0314c0f7b2291e5b200ac8c7c3b92591015b60405180910390a3505050565b60006106c38484610567565b9050600019811461072b578181101561071e5760405162461bcd60e51b815260206004820152601d60248201527f45524332303a20696e73756666696369656e7420616c6c6f77616e636500000060448201526064016103fd565b61072b8484848403610592565b50505050565b60006064600554836107439190610d11565b61074d9190610d28565b905060006064600654846107619190610d11565b61076b9190610d28565b905060008161077a8486610d4a565b6107849190610d4a565b905082156107a4576007546107a49087906001600160a01b0316856109b0565b81156107b4576107b48683610886565b6107bf8686836109b0565b505050505050565b6001600160a01b03821661081d5760405162461bcd60e51b815260206004820152601f60248201527f45524332303a206d696e7420746f20746865207a65726f20616464726573730060448201526064016103fd565b806002600082825461082f9190610cfe565b90915550506001600160a01b038216600081815260208181526040808320805486019055518481527fddf252ad1be2c89b69c2b068fc378daa952ba7f163c4a11628f55a4df523b3ef910160405180910390a35050565b6001600160a01b0382166108e65760405162461bcd60e51b815260206004820152602160248201527f45524332303a206275726e2066726f6d20746865207a65726f206164647265736044820152607360f81b60648201526084016103fd565b6001600160a01b0382166000908152602081905260409020548181101561095a5760405162461bcd60e51b815260206004820152602260248201527f45524332303a206275726e20616d6f756e7420657863656564732062616c616e604482015261636560f01b60648201526084016103fd565b6001600160a01b0383166000818152602081815260408083208686039055600280548790039055518581529192917fddf252ad1be2c89b69c2b068fc378daa952ba7f163c4a11628f55a4df523b3ef91016106aa565b6001600160a01b038316610a145760405162461bcd60e51b815260206004820152602560248201527f45524332303a207472616e736665722066726f6d20746865207a65726f206164604482015264647265737360d81b60648201526084016103fd565b6001600160a01b038216610a765760405162461bcd60e51b815260206004820152602360248201527f45524332303a207472616e7366657220746f20746865207a65726f206164647260448201526265737360e81b60648201526084016103fd565b6001600160a01b03831660009081526020819052604090205481811015610aee5760405162461bcd60e51b815260206004820152602660248201527f45524332303a207472616e7366657220616d6f756e7420657863656564732062604482015265616c616e636560d01b60648201526084016103fd565b6001600160a01b03848116600081815260208181526040808320878703905593871680835291849020805487019055925185815290927fddf252ad1be2c89b69c2b068fc378daa952ba7f163c4a11628f55a4df523b3ef910160405180910390a361072b565b600060208083528351808285015260005b81811015610b8157858101830151858201604001528201610b65565b506000604082860101526040601f19601f8301168501019250505092915050565b80356001600160a01b0381168114610bb957600080fd5b919050565b60008060408385031215610bd157600080fd5b610bda83610ba2565b946020939093013593505050565b600080600060608486031215610bfd57600080fd5b610c0684610ba2565b9250610c1460208501610ba2565b9150604084013590509250925092565b600060208284031215610c3657600080fd5b610c3f82610ba2565b9392505050565b600080600060608486031215610c5b57600080fd5b8335925060208401359150610c7260408501610ba2565b90509250925092565b60008060408385031215610c8e57600080fd5b610c9783610ba2565b9150610ca560208401610ba2565b90509250929050565b600181811c90821680610cc257607f821691505b602082108103610ce257634e487b7160e01b600052602260045260246000fd5b50919050565b634e487b7160e01b600052601160045260246000fd5b8082018082111561032057610320610ce8565b808202811582820484141761032057610320610ce8565b600082610d4557634e487b7160e01b600052601260045260246000fd5b500490565b8181038181111561032057610320610ce856fea264697066735822122049820ace80ed308904ec19c4e423673da75c1b8dac6773eabb7925449c00339a64736f6c63430008140033",
  "immutableReferences": {},
  "source": "// SPDX-License-Identifier: UNLICENSED\r\npragma solidity ^0.8.20;\r\n\r\nimport \"@openzeppelin/contracts/token/ERC20/ERC20.sol\";\r\n\r\ncontract Token is ERC20 {\r\n    uint256 public transactionFeePercentage; // Fee percentage on transfers\r\n    uint256 public burnPercentage; // Percentage of transfer amount to burn\r\n    address public treasury; // Address to receive transaction fees\r\n\r\n    event ParametersUpdated(uint256 feePercentage, uint256 burnPercentage, address treasury);\r\n\r\n    constructor() ERC20(\"Hyperia\", \"HYP\") {\r\n        uint256 totalSupply = 4_000_000_000 * (10 ** decimals());\r\n        _mint(msg.sender, totalSupply); // Mint total supply to deployer\r\n        transactionFeePercentage = 2; // Default transaction fee (2%)\r\n        burnPercentage = 1; // Default burn percentage (1%)\r\n        treasury = msg.sender; // Default treasury is deployer\r\n    }\r\n\r\n    function updateParameters(uint256 _transactionFeePercentage, uint256 _burnPercentage, address _treasury) external {\r\n        require(_transactionFeePercentage <= 10, \"Fee too high\");\r\n        require(_burnPercentage <= 10, \"Burn too high\");\r\n        require(_treasury != address(0), \"Invalid treasury address\");\r\n\r\n        transactionFeePercentage = _transactionFeePercentage;\r\n        burnPercentage = _burnPercentage;\r\n        treasury = _treasury;\r\n\r\n        emit ParametersUpdated(_transactionFeePercentage, _burnPercentage, _treasury);\r\n    }\r\n\r\n    function _transfer(address sender, address recipient, uint256 amount) internal override {\r\n        uint256 feeAmount = (amount * transactionFeePercentage) / 100;\r\n        uint256 burnAmount = (amount * burnPercentage) / 100;\r\n        uint256 transferAmount = amount - feeAmount - burnAmount;\r\n\r\n        if (feeAmount > 0) {\r\n            super._transfer(sender, treasury, feeAmount); // Send fees to treasury\r\n        }\r\n        if (burnAmount > 0) {\r\n            _burn(sender, burnAmount); // Burn tokens\r\n        }\r\n        super._transfer(sender, recipient, transferAmount); // Transfer remaining amount\r\n    }\r\n\r\n    function mint(address account, uint256 amount) external {\r\n        _mint(account, amount);\r\n    }\r\n\r\n    function burn(address account, uint256 amount) external {\r\n        _burn(account, amount);\r\n    }\r\n}\r\n",
  "sourcePath": "C:\\Users\\PMLS\\Desktop\\hyperia token\\contracts\\Hyperia.sol",
  "compiler": {
    "name": "solc",
    "version": "0.8.20+commit.a1b79de6.Emscripten.clang"
  },
  "schemaVersion": "3.4.16",
  "updatedAt": "2025-01-20T09:06:46.238Z",
  "networkType": "ethereum",
  "devdoc": {
    "events": {
      "Approval(address,address,uint256)": {
        "details": "Emitted when the allowance of a `spender` for an `owner` is set by a call to {approve}. `value` is the new allowance."
      },
      "Transfer(address,address,uint256)": {
        "details": "Emitted when `value` tokens are moved from one account (`from`) to another (`to`). Note that `value` may be zero."
      }
    },
    "kind": "dev",
    "methods": {
      "allowance(address,address)": {
        "details": "See {IERC20-allowance}."
      },
      "approve(address,uint256)": {
        "details": "See {IERC20-approve}. NOTE: If `amount` is the maximum `uint256`, the allowance is not updated on `transferFrom`. This is semantically equivalent to an infinite approval. Requirements: - `spender` cannot be the zero address."
      },
      "balanceOf(address)": {
        "details": "See {IERC20-balanceOf}."
      },
      "decimals()": {
        "details": "Returns the number of decimals used to get its user representation. For example, if `decimals` equals `2`, a balance of `505` tokens should be displayed to a user as `5.05` (`505 / 10 ** 2`). Tokens usually opt for a value of 18, imitating the relationship between Ether and Wei. This is the default value returned by this function, unless it's overridden. NOTE: This information is only used for _display_ purposes: it in no way affects any of the arithmetic of the contract, including {IERC20-balanceOf} and {IERC20-transfer}."
      },
      "decreaseAllowance(address,uint256)": {
        "details": "Atomically decreases the allowance granted to `spender` by the caller. This is an alternative to {approve} that can be used as a mitigation for problems described in {IERC20-approve}. Emits an {Approval} event indicating the updated allowance. Requirements: - `spender` cannot be the zero address. - `spender` must have allowance for the caller of at least `subtractedValue`."
      },
      "increaseAllowance(address,uint256)": {
        "details": "Atomically increases the allowance granted to `spender` by the caller. This is an alternative to {approve} that can be used as a mitigation for problems described in {IERC20-approve}. Emits an {Approval} event indicating the updated allowance. Requirements: - `spender` cannot be the zero address."
      },
      "name()": {
        "details": "Returns the name of the token."
      },
      "symbol()": {
        "details": "Returns the symbol of the token, usually a shorter version of the name."
      },
      "totalSupply()": {
        "details": "See {IERC20-totalSupply}."
      },
      "transfer(address,uint256)": {
        "details": "See {IERC20-transfer}. Requirements: - `to` cannot be the zero address. - the caller must have a balance of at least `amount`."
      },
      "transferFrom(address,address,uint256)": {
        "details": "See {IERC20-transferFrom}. Emits an {Approval} event indicating the updated allowance. This is not required by the EIP. See the note at the beginning of {ERC20}. NOTE: Does not update the allowance if the current allowance is the maximum `uint256`. Requirements: - `from` and `to` cannot be the zero address. - `from` must have a balance of at least `amount`. - the caller must have allowance for ``from``'s tokens of at least `amount`."
      }
    },
    "version": 1
  },
  "userdoc": {
    "kind": "user",
    "methods": {},
    "version": 1
  }
}